:020000020000FC
:2000000000400034086060140800683A0000000000000000000000000000000000000000E6
:20000800DEFFED04DFC00015D8400215D8800315D8C00415D9000515D9400615D98007156A
:20001000D9C00815000B307ADA000915DA400A15DA800B15DAC00C15DB000D15DB400E15C4
:20001800DB800F15DBC01015D9401115EBFFFF04DBC012150009313A2880004C10000326FA
:200020002000022600080FC000000706DF401215E8BFFF17E93FFF04000815C01000021E59
:20002800EBFFFF04DBC01215D9401117DF401217DFC000172801707AD8400217D880031714
:20003000D8C00417D9000517D9400617D9800717D9C00817DA000917DA400A17DA800B17F2
:20003800DAC00C17DB000D17DB400E17DB800F17DBC01017DEC01304EF80083ADEFFFE0424
:20004000DFC00115DC0000150007313A0400007484237D04000B883A008000441888703A0D
:2000480020000B26280490FA8085883A10C0001711000117183EE83A0007313A183FF51E66
:20005000DFC00117DC000017DEC00204F800283A1085883A29400044003FF006D0A04517E3
:2000580010000426200B883A000D883A013FFFC41000683A003DA03A0005883AF800283AA5
:2000600006C00074DEC0001406800074D68336140080003410A3761400C0003418E3BD1446
:2000680010C00326100000151080010410FFFD360008568000086480003FFF060080007481
:200070001084170400C0004410C00035D0A040171005003AD0A04015D0A0401710000326DD
:20007800010000742122AF0400000206010000742122B204000882C101000074DEFFFC04EA
:200080002122B604DFC00315DC800215DC400115DC000015000882C0010000742122C3044D
:20008800000882C0008000741084160400C0004410C000350080007410841704100000357B
:200090000180007431A06F04000B883A0100010400084D40D0A0001700C0030401000074EC
:2000980010C0001500C0008410C00015014005042122CB0404800074044003F400086740FC
:2000A0000021883A94A2DD048C698004D0A04017100003260100FA0400088640003FFB06C0
:2000A800014000C48009883A00083200108007CC1085883A1085883A9085883A114000175E
:2000B000D0E00017188001171008D43A21003FCC203FFC261004D63A103FFA2619400215E3
:2000B8001940031584000044847FE81E010000742122D904000882C0010000F4210350049A
:2000C000000886400005883ADFC00317DC800217DC400117DC000017DEC00404F800283A36
:2000C80020001B16000F883A28001616200D883A29001A2E0080080400C0004400000106AB
:2000D00010000D26294B883A10BFFFC418C7883A293FFB360005883A180007260005883AF8
:2000D80031400236314DC83A10C4B03A1806D07A280AD07A183FFA1E380001260085C83AE8
:2000E000F800283A014BC83A39C0005C003FE7060109C83A01C00044003FE30600C000449A
:2000E800003FEE0620001716000F883A2005883A280012162900162E0180080400C0004472
:2000F0000000010630000A26294B883A31BFFFC418C7883A293FFB36180005261806D07ABB
:2000F800114001361145C83A280AD07A183FFB1E380001260085C83AF800283A014BC83A8E
:20010000003FEC060109C83A01C00044003FE70600C00044003FF106200D883A2900152EDC
:20010800280014160080080400C000440000020610000E2628000516294B883A10BFFFC49E
:2001100018C7883A293FFA36180008260005883A31400236314DC83A10C4B03A1806D07A3A
:20011800280AD07A183FFA1EF800283A0005883AF800283A00C00044003FF4062005883A3D
:200120002900122E280011160180080400C000440000020630000C2628000516294B883A93
:2001280031BFFFC418C7883A293FFA36180006261806D07A114001361145C83A280AD07AC3
:20013000183FFB1EF800283AF800283A00C00044003FF706008007C411002136000F303A1F
:2001380000FFFF8438C4703A1001703A200490FA0200007442237D044085883A118000158D
:20014000114001150080004430000726000B303A28C6703A1801703AD0E041171104983A58
:2001480010C4B03A00000706000B303A28C6703A1801703A1104983AD0E041170084303A1F
:2001500010C4703AD0A04115D0A04117100170FA2801703A3801703A0005883AF800283A31
:2001580000BFFA84F800283ADEFFFF040100007401400074DFC000152123080429633F0413
:200160002140061E010000740140007421200804296008042140121E00000B0600C0007418
:2001680018E33F041907C83A0005883A10FFF526114F883A39C00017110D883A108001047F
:2001700031C00015003FF90601000074014000742122AF042962AF042140101E00000B062D
:2001780000C0007418E060041907C83A0005883A10FFF526114F883A39C00017110D883AB2
:200180001080010431C00015003FF90600089800DFC00017DEC0010400089F8100C0007431
:2001880018E308041907C83A0005883A18BFF726114F883A39C00017110D883A10800104CC
:2001900031C00015003FF906DEFFFF040009883ADFC000150008868000088880D1A04217C4
:20019800D1604317D1204417DFC00017DEC0010400081F81DEFFF2042005883ADFC00A15F7
:2001A000DF000915DDC00815DD800715DD400615DD000515DCC00415DC800315DC40021584
:2001A800DC000115D9400B15D9800C15D9C00D1504000944DD400B04048018C404C01E0414
:2001B00005001CC41100000720003A26240002261440004400001406144000841080004705
:2001B800100034261400021E8009883A00000E061480051EA9000017AD800104B02B883AE4
:2001C00000087E400000290614C0201EADC00017AD400104B80003260580070400C003C4AA
:2001C8000000030601000C0400087E4000001F061D84983A15C4703A1000021EB5BFFF0475
:2001D000003FFB06070003C400C00244B0001716E588983A25C8703A2588D83A1900023638
:2001D80021000C0400000106210015C421003FCC2100201C213FE004D8C0001500087E4095
:2001E000B5BFFF04D8C00017003FF0061500071EAD800017AD400104B10000072000032633
:2001E800B580004400087E40003FFB068805883A003FC406DFC00A17DF000917DDC00817A5
:2001F000DD800717DD400617DD000517DCC00417DC800317DC400217DC000117DEC00E043B
:2001F800F800283ADEFFFD04DC000115D90000052021883A01000074000F883A01800044D1
:20020000D80B883A21233804DFC0021500088C4000FFFFC410C001268005883ADFC0021777
:20020800DC000117DEC00304F800283ADEFFFE04DC000015DFC001152021883A0008A7802C
:2002100001000074000F883A100D883A800B883A21233804DFC00117DC000017DEC002048E
:2002180000088C4100088F81DEFFFF04DFC0001500089FC0008000441001703ADFC00017A9
:20022000DEC00104F800283ADEFFFE04DC00001501000074D4200404800B883A21231404D7
:20022800DFC00115000898C001000074800B883A21230804DFC00117DC000017DEC0020441
:20023000000898C1210000173005883A298D883A21C001042980072E38C0003718FFFFECB1
:20023800183FFC2628C0000720C0003529400044003FF806F800283A014666B4DEFFFE04A5
:2002400029666644DC000015DFC001152021883A000841801000102601600034013999B491
:200248000007883A297FFFC4211999C4297FFFC4283FFE1E18C000448121883A18BFFB1675
:20025000014001448009883A0008A94010BFFFC4103FFE1E00000506014001448009883AF3
:200258000008A94010BFFFC400BFFE160005883ADFC00117DC000017DEC00204F800283AC1
:20026000F800283A3005883AF800283A20000226208002171000101ED0A0081710000926C6
:20026800DEFFFF04DFC00015103EE83A00C0058410C0001500BFFA84DFC00017DEC00104AE
:20027000F800283AD0A0460400C0058410C0001500BFFA84F800283A28800017214001155F
:20027800208000152880001711000115290000150005883AF800283AF800283A000170FAA7
:20028000F800283A213FFE84008003C411001636200890BA0080007410A28A042089883A6D
:20028800208000171000683A00008A7000008A7000008A6800008A6800008A6800008A7029
:2002900000008A6800008A6800008A7000008A7000008A6800008A7000008A6800008A68A6
:2002980000008A6800008A700005883AF800283A00800044F800283A2005883A10C000075D
:2002A0001800022610800044003FFC061105C83AF800283A0005883A2000072620C0004C37
:2002A8002008D07A180001261145883A294B883A203FFA1EF800283AF800283A5541505BCB
:2002B0000A5D4153000000004E4F435B554E49540A5D524100000000202D2D2D657572507B
:2002B8006420616275412065206F6964646F4D287550206F7265746E202D206F4F4E4553E2
:2002C0004C4144492D2D202900000A2D706D694C646E61694946206F20734F46612065646C
:2002C8006F6964750A2E2E2E00000000656E6547646E61726F74206F53206F6E494F4E45C0
:2002D000204C41447E2065642030303570207A482520726F65732064646E75672E2E736F41
:2002D80000000A2E206E6946206C65646F6E6F7400000A2E000000000018F8B80030FB8CC5
:2002E00000471C71005A8279006A6D9A007641AF007D8A21007FFFFF007D8A21007641AFCB
:2002E800006A6D9A005A827900471C710030FB8C0018F8B80000000000E7074800CF047460
:2002F00000B8E38F00A57D87009592660089BE51008275DF00800001008275DF0089BE5131
:2002F8000095926600A57D8700B8E38F00CF047400E707487665642F4455412F00004F49FA
:200300007665642F4455412F435F4F4949464E4F000000477665642F6C756E2F0000006C61
:200308000000000000000000000000000000000000000000000000000000000000000000D5
:200310000000000000000000000000000000000000000000000000000000000000000000CD
:200318000000000000000000000000000000000000000000000000000000000000000000C5
:200320000000000000000000000000000000000000000000000000000000000000000000BD
:200328000000000000000000000000000000000000000000000000000000000000000000B5
:200330000000000000000000000000000000000000000000000000000000000000000000AD
:200338000000000000000000000000000000000000000000000000000000000000000000A5
:200340000000000000008BF40000000000000000000000000000000000000000000000001E
:20034800000000000001107000000000000000000000000000008C00000000000000000088
:200350000000000000000000000000000000000000000000000110600000000000008CB0E0
:20035800000000000000000000008CB0000000000000000000008CB000000000000000000D
:2003600000000000000000000000000000008CE800008CE800008C140000000000000000F5
:20036800000000000000898400000000000000000000000000011070FFFFFFFF000110805A
:20037000FFFFFFFF00008CB000008CB000008CF000008CF000000000000000000000000001
:20037800000000000000000000000000000000000000000000000000000000000000000065
:2003800000000000000000000000000000000000000000000000000000000000000000005D
:20038800000000000000000000000000000000000000000000000000000000000000000055
:2003900000000000000000000000000000000000000000000000000000000000000000004D
:00000001FF
